:020000020000FC
:0200000027C314
:020034002BC3DC
:1000540042C30708090F0405060E0102030D0A0036
:100064000B0C0F930FE00BB900EF0AB900274B9B61
:1000740001E04A9B02E0499B03E0489B04E0002E18
:100084000F9108950F9300EF0BB90FE00AB9002701
:100094004F9B01E04E9B02E04D9B03E04C9B04E030
:1000A400002E0F9108950F931F9300E01FEFD9DFE7
:1000B400302C012E301681F0E5DF202C012E201685
:1000C40059F02A9404E0209E030C0A94002022F0A4
:1000D400E6E5F0E0E00D04901F910F9108950F9371
:1000E4002F923F92239A2B98249A2C98259A2D98F4
:1000F4000AE1202E01E0302E7ED03F902F900F9108
:1001040008950F932F92032D2B9820FC2B9A2D9A50
:100114002D9826940A95C1F72F900F9108950F9367
:100124001F932F93CF93DF9321E0C0E0D1E0A896F3
:100134000AE0053009F46E972A9018E0312EE1DFC9
:100144000A95B9F7AD9608E0021711F02B9802C092
:100154002B9A00C02D9A2D980A95B1F78CD08BD08C
:100164002C9A89D088D02C98239523FFE1CFDF9156
:10017400CF912F911F910F910895CF93DF931FD0AB
:1001840001280882DF91CF9108950F93CF93DF93D5
:1001940016D00FEF102601200882DF91CF910F9126
:1001A4000895CF93DF930BD017FC03C0000C110C00
:1001B400FBCF07FA002400F8DF91CF9108950F9345
:1001C4002F923F92C0E0D1E0222019F025962A9484
:1001D400FBCF08E0301618F0301A2196FBCF00E868
:1001E400332019F006953A94FBCF0880102E3F90E7
:1001F4002F900F9108950F931F932F923F92CF93B7
:10020400DF93EF93FF93C0E0D1E08894221C331C6A
:10021400E22DF32D06E4159119930A95E1F7FF9168
:10022400EF91DF91CF913F902F901F910F910895FF
:1002340000000000000000000000000000000000BA
:1002440000000000000000000000000000000000AA
:10025400000000000000000000000000000000009A
:10026400000000000000000000000000000000008A
:100274000000000000000F930FEF0A95F1F70F91B3
:1002840008950F931F9300E0002EA0FA00F82A941B
:1002940071F0F694E794D794C794B794A794F6F8BA
:1002A40010E011F9F126A0FA000C00F8F0CF1F912C
:1002B4000F9108950F932F9204E0202EE2DF002D7A
:1002C4000E3010F00850002E2F900F9108950F93C8
:1002D4002F9206E0202ED5DF002D083210F00052B8
:1002E400002E2F900F9108950F93EF93FF93CF93C8
:1002F400DF9302EE202E02E0302E7DDF91E0DF91CD
:10030400CF91FF91EF910F9108950F93EF93FF9386
:10031400CF93DF93E4DEC0E0D2E0EEE2F5E00591B6
:10032400099325902992359039920A95D1F7189915
:1003340005C00CE9202E02E0302E04C00FEB202E65
:1003440002E0302E58DF84E090E0A6B4D9D0C0E0BB
:10035400D3E005E80A830EEE0B83DF91CF91FF9182
:10036400EF910F9108950F932CD0002D0A950CF462
:100374000DE0202E312C35D00F9108950F9321D00C
:10038400002D03950E3008F000E0202E312C29D0EA
:100394000F9108950F9315D0012D0A950CF407E2DF
:1003A400202C302E1ED00F9108950F930AD0012DCA
:1003B4000395083208F000E0202C302E12D00F9163
:1003C40008950F93CF93DF93C0E0D2E009910A958B
:1003D40022960A95E9F709901880DF91CF910F9141
:1003E40008950F931F932F93CF93DF93C0E0D3E02F
:1003F400099118812016C9F43116B9F4C0E0D2E08D
:100404000881039509930A9522960A95E9F729929A
:10041400399276D0C0E0D3E00A81023B14F425E09F
:1004240001C021E0020F0A831EC0BBDE002039F0A8
:1004340091E005E0202E03E0302EDDDE14C0C0E0A4
:10044400D2E0022D132D29803A809FDE202E312EFA
:1004540009910A951A8119931A8119930A95D1F76A
:10046400299238828ADEDF91CF912F911F910F91CB
:1004740008950F931F932F92CF93DF93022D992307
:1004840021F00A30B9F541DF35C0033011F04F33A4
:1004940020F48230C9F081E017C00B3011F0403CE9
:1004A40020F0813089F082E00FC0003011F05F331A
:1004B40020F4843049F083E007C00C3011F0503C44
:1004C40018F0833009F084E0813011F44CDF0BC064
:1004D400823011F453DF07C0833011F45BDF03C0B3
:1004E400843009F462DF992329F4C0E0D3E0299031
:1004F400388043DEDF91CF912F901F910F910895A3
:100504002F923F92CF93DF93C0E0D3E0D3DE202C31
:10051400DEDE302C46DE0020C9F7299238822DDE3B
:10052400DF91CF913F902F90089504061206130691
:100534001406150000000000000000000000000088
:1005440000000000000000000000000000000000A7
:10055400000000003C00000000000000000000005B
:100564000000000000000000000000000000000087
:1005740000000000000000000000FFFFFFFFFF80FC
:1005840000000001800000000180000000018000E4
:10059400000001800000000180003C000180000098
:1005A40000018000000001800000000180000000C4
:1005B4000180000000018000000001FFFFFFFFFF39
:1005C40001DC67380002089490000208949000014E
:1005D400889490000048F710000048949000038825
:1005E400949000000C64BC00001297A000001094CA
:1005F400A000001694BC000012F4A000001294A005
:1006040000000C94BC00000C64BC00001297A00015
:10061400001094A000001694BC000012F4A0000086
:100624001294A000000C94BC00001E97B8000012A5
:100634009424000012942400001297A40000129441
:1006440038000012942400001E67A4002098289A01
:1006540046DD4ADE05D035D062DD25DD302DFCCF08
:100664000F9303E005BD00E006BD03E000938100A5
:1006740005E8009385000EEE00938400789401E071
:1006840000936F000F9108950F930FB70F930F927C
:100694001F922F923F92CF93DF93232EEADEC0E086
:1006A400D3E00A81009385000B8100938400DF91DD
:1006B400CF913F902F901F900F900F910FBF0F91EC
:1006C40018950F9300E600937C0078940FEC009348
:1006D4007A000F9108950F930FB70F931F93009112
:1006E4007C0000FB1EF05091790002C0409179001B
:1006F40011E0012700937C0010E400917A00012BA3
:0E07040000937A001F910F910FBF0F9118956F
:00000001FF
